{
  "_format": "hh-sol-artifact-1",
  "contractName": "Citoyens",
  "sourceName": "contracts/Citoyens.sol",
  "abi": [
    {
      "anonymous": false,
      "inputs": [
        {
          "indexed": false,
          "internalType": "string",
          "name": "nom",
          "type": "string"
        },
        {
          "indexed": false,
          "internalType": "string",
          "name": "prenom",
          "type": "string"
        },
        {
          "indexed": false,
          "internalType": "string",
          "name": "pere",
          "type": "string"
        },
        {
          "indexed": false,
          "internalType": "string",
          "name": "mere",
          "type": "string"
        },
        {
          "indexed": false,
          "internalType": "string",
          "name": "sexe",
          "type": "string"
        },
        {
          "indexed": false,
          "internalType": "string",
          "name": "naissance",
          "type": "string"
        },
        {
          "indexed": false,
          "internalType": "uint256",
          "name": "timestamp",
          "type": "uint256"
        },
        {
          "indexed": false,
          "internalType": "string",
          "name": "keyword",
          "type": "string"
        }
      ],
      "name": "Transfer",
      "type": "event"
    },
    {
      "inputs": [
        {
          "internalType": "string",
          "name": "nom",
          "type": "string"
        },
        {
          "internalType": "string",
          "name": "prenom",
          "type": "string"
        },
        {
          "internalType": "string",
          "name": "pere",
          "type": "string"
        },
        {
          "internalType": "string",
          "name": "mere",
          "type": "string"
        },
        {
          "internalType": "string",
          "name": "sexe",
          "type": "string"
        },
        {
          "internalType": "string",
          "name": "naissance",
          "type": "string"
        },
        {
          "internalType": "string",
          "name": "keyword",
          "type": "string"
        }
      ],
      "name": "addToBlockchain",
      "outputs": [],
      "stateMutability": "nonpayable",
      "type": "function"
    },
    {
      "inputs": [],
      "name": "getAllCitoyens",
      "outputs": [
        {
          "components": [
            {
              "internalType": "string",
              "name": "nom",
              "type": "string"
            },
            {
              "internalType": "string",
              "name": "prenom",
              "type": "string"
            },
            {
              "internalType": "string",
              "name": "pere",
              "type": "string"
            },
            {
              "internalType": "string",
              "name": "mere",
              "type": "string"
            },
            {
              "internalType": "string",
              "name": "sexe",
              "type": "string"
            },
            {
              "internalType": "string",
              "name": "naissance",
              "type": "string"
            },
            {
              "internalType": "uint256",
              "name": "timestamp",
              "type": "uint256"
            },
            {
              "internalType": "string",
              "name": "keyword",
              "type": "string"
            }
          ],
          "internalType": "struct Citoyens.TransferStruct[]",
          "name": "",
          "type": "tuple[]"
        }
      ],
      "stateMutability": "view",
      "type": "function"
    },
    {
      "inputs": [],
      "name": "getCitoyensCount",
      "outputs": [
        {
          "internalType": "uint256",
          "name": "",
          "type": "uint256"
        }
      ],
      "stateMutability": "view",
      "type": "function"
    }
  ],
  "bytecode": "0x608060405234801561001057600080fd5b50610e51806100206000396000f3fe608060405234801561001057600080fd5b50600436106100415760003560e01c80630a6db76b146100465780633c8beaeb146100625780637ae32b9614610080575b600080fd5b610060600480360381019061005b91906107bd565b61009e565b005b61006a610241565b6040516100779190610bc7565b60405180910390f35b61008861024a565b6040516100959190610af6565b60405180910390f35b60016000808282546100b09190610ca9565b92505081905550600160405180610100016040528089815260200188815260200187815260200186815260200185815260200184815260200142815260200183815250908060018154018082558091505060019003906000526020600020906008020160009091909190915060008201518160000190805190602001906101389291906106b2565b5060208201518160010190805190602001906101559291906106b2565b5060408201518160020190805190602001906101729291906106b2565b50606082015181600301908051906020019061018f9291906106b2565b5060808201518160040190805190602001906101ac9291906106b2565b5060a08201518160050190805190602001906101c99291906106b2565b5060c0820151816006015560e08201518160070190805190602001906101f09291906106b2565b5050507fe1d92c758207b088f00462a3e8f41d730e34513409c728b7732e8c5f98bc212e8787878787874288604051610230989796959493929190610b18565b60405180910390a150505050505050565b60008054905090565b60606001805480602002602001604051908101604052809291908181526020016000905b828210156106a95783829060005260206000209060080201604051806101000160405290816000820180546102a290610d4b565b80601f01602080910402602001604051908101604052809291908181526020018280546102ce90610d4b565b801561031b5780601f106102f05761010080835404028352916020019161031b565b820191906000526020600020905b8154815290600101906020018083116102fe57829003601f168201915b5050505050815260200160018201805461033490610d4b565b80601f016020809104026020016040519081016040528092919081815260200182805461036090610d4b565b80156103ad5780601f10610382576101008083540402835291602001916103ad565b820191906000526020600020905b81548152906001019060200180831161039057829003601f168201915b505050505081526020016002820180546103c690610d4b565b80601f01602080910402602001604051908101604052809291908181526020018280546103f290610d4b565b801561043f5780601f106104145761010080835404028352916020019161043f565b820191906000526020600020905b81548152906001019060200180831161042257829003601f168201915b5050505050815260200160038201805461045890610d4b565b80601f016020809104026020016040519081016040528092919081815260200182805461048490610d4b565b80156104d15780601f106104a6576101008083540402835291602001916104d1565b820191906000526020600020905b8154815290600101906020018083116104b457829003601f168201915b505050505081526020016004820180546104ea90610d4b565b80601f016020809104026020016040519081016040528092919081815260200182805461051690610d4b565b80156105635780601f1061053857610100808354040283529160200191610563565b820191906000526020600020905b81548152906001019060200180831161054657829003601f168201915b5050505050815260200160058201805461057c90610d4b565b80601f01602080910402602001604051908101604052809291908181526020018280546105a890610d4b565b80156105f55780601f106105ca576101008083540402835291602001916105f5565b820191906000526020600020905b8154815290600101906020018083116105d857829003601f168201915b505050505081526020016006820154815260200160078201805461061890610d4b565b80601f016020809104026020016040519081016040528092919081815260200182805461064490610d4b565b80156106915780601f1061066657610100808354040283529160200191610691565b820191906000526020600020905b81548152906001019060200180831161067457829003601f168201915b5050505050815250508152602001906001019061026e565b50505050905090565b8280546106be90610d4b565b90600052602060002090601f0160209004810192826106e05760008555610727565b82601f106106f957805160ff1916838001178555610727565b82800160010185558215610727579182015b8281111561072657825182559160200191906001019061070b565b5b5090506107349190610738565b5090565b5b80821115610751576000816000905550600101610739565b5090565b600061076861076384610c13565b610be2565b90508281526020810184848401111561078057600080fd5b61078b848285610d09565b509392505050565b600082601f8301126107a457600080fd5b81356107b4848260208601610755565b91505092915050565b600080600080600080600060e0888a0312156107d857600080fd5b600088013567ffffffffffffffff8111156107f257600080fd5b6107fe8a828b01610793565b975050602088013567ffffffffffffffff81111561081b57600080fd5b6108278a828b01610793565b965050604088013567ffffffffffffffff81111561084457600080fd5b6108508a828b01610793565b955050606088013567ffffffffffffffff81111561086d57600080fd5b6108798a828b01610793565b945050608088013567ffffffffffffffff81111561089657600080fd5b6108a28a828b01610793565b93505060a088013567ffffffffffffffff8111156108bf57600080fd5b6108cb8a828b01610793565b92505060c088013567ffffffffffffffff8111156108e857600080fd5b6108f48a828b01610793565b91505092959891949750929550565b600061090f83836109fe565b905092915050565b600061092282610c53565b61092c8185610c76565b93508360208202850161093e85610c43565b8060005b8581101561097a578484038952815161095b8582610903565b945061096683610c69565b925060208a01995050600181019050610942565b50829750879550505050505092915050565b600061099782610c5e565b6109a18185610c87565b93506109b1818560208601610d18565b6109ba81610e0a565b840191505092915050565b60006109d082610c5e565b6109da8185610c98565b93506109ea818560208601610d18565b6109f381610e0a565b840191505092915050565b6000610100830160008301518482036000860152610a1c828261098c565b91505060208301518482036020860152610a36828261098c565b91505060408301518482036040860152610a50828261098c565b91505060608301518482036060860152610a6a828261098c565b91505060808301518482036080860152610a84828261098c565b91505060a083015184820360a0860152610a9e828261098c565b91505060c0830151610ab360c0860182610ad8565b5060e083015184820360e0860152610acb828261098c565b9150508091505092915050565b610ae181610cff565b82525050565b610af081610cff565b82525050565b60006020820190508181036000830152610b108184610917565b905092915050565b6000610100820190508181036000830152610b33818b6109c5565b90508181036020830152610b47818a6109c5565b90508181036040830152610b5b81896109c5565b90508181036060830152610b6f81886109c5565b90508181036080830152610b8381876109c5565b905081810360a0830152610b9781866109c5565b9050610ba660c0830185610ae7565b81810360e0830152610bb881846109c5565b90509998505050505050505050565b6000602082019050610bdc6000830184610ae7565b92915050565b6000604051905081810181811067ffffffffffffffff82111715610c0957610c08610ddb565b5b8060405250919050565b600067ffffffffffffffff821115610c2e57610c2d610ddb565b5b601f19601f8301169050602081019050919050565b6000819050602082019050919050565b600081519050919050565b600081519050919050565b6000602082019050919050565b600082825260208201905092915050565b600082825260208201905092915050565b600082825260208201905092915050565b6000610cb482610cff565b9150610cbf83610cff565b9250827fffffffffffffffffffffffffffffffffffffffffffffffffffffffffffffffff03821115610cf457610cf3610d7d565b5b828201905092915050565b6000819050919050565b82818337600083830152505050565b60005b83811015610d36578082015181840152602081019050610d1b565b83811115610d45576000848401525b50505050565b60006002820490506001821680610d6357607f821691505b60208210811415610d7757610d76610dac565b5b50919050565b7f4e487b7100000000000000000000000000000000000000000000000000000000600052601160045260246000fd5b7f4e487b7100000000000000000000000000000000000000000000000000000000600052602260045260246000fd5b7f4e487b7100000000000000000000000000000000000000000000000000000000600052604160045260246000fd5b6000601f19601f830116905091905056fea26469706673582212202f3375deed88cfcf651e0c0f1d5c266b834994a61e7ea5f419d2575b440467af64736f6c63430008000033",
  "linkReferences": {},
  "deployedLinkReferences": {}
}